{
  "_format": "hh-sol-artifact-1",
  "contractName": "WrappedCAM",
  "sourceName": "contracts/WrappedCAM.sol",
  "abi": [
    {
      "inputs": [],
      "stateMutability": "nonpayable",
      "type": "constructor"
    },
    {
      "inputs": [],
      "name": "CannotSendWCAMToThisContract",
      "type": "error"
    },
    {
      "inputs": [],
      "name": "ECDSAInvalidSignature",
      "type": "error"
    },
    {
      "inputs": [
        {
          "internalType": "uint256",
          "name": "length",
          "type": "uint256"
        }
      ],
      "name": "ECDSAInvalidSignatureLength",
      "type": "error"
    },
    {
      "inputs": [
        {
          "internalType": "bytes32",
          "name": "s",
          "type": "bytes32"
        }
      ],
      "name": "ECDSAInvalidSignatureS",
      "type": "error"
    },
    {
      "inputs": [
        {
          "internalType": "address",
          "name": "spender",
          "type": "address"
        },
        {
          "internalType": "uint256",
          "name": "allowance",
          "type": "uint256"
        },
        {
          "internalType": "uint256",
          "name": "needed",
          "type": "uint256"
        }
      ],
      "name": "ERC20InsufficientAllowance",
      "type": "error"
    },
    {
      "inputs": [
        {
          "internalType": "address",
          "name": "sender",
          "type": "address"
        },
        {
          "internalType": "uint256",
          "name": "balance",
          "type": "uint256"
        },
        {
          "internalType": "uint256",
          "name": "needed",
          "type": "uint256"
        }
      ],
      "name": "ERC20InsufficientBalance",
      "type": "error"
    },
    {
      "inputs": [
        {
          "internalType": "address",
          "name": "approver",
          "type": "address"
        }
      ],
      "name": "ERC20InvalidApprover",
      "type": "error"
    },
    {
      "inputs": [
        {
          "internalType": "address",
          "name": "receiver",
          "type": "address"
        }
      ],
      "name": "ERC20InvalidReceiver",
      "type": "error"
    },
    {
      "inputs": [
        {
          "internalType": "address",
          "name": "sender",
          "type": "address"
        }
      ],
      "name": "ERC20InvalidSender",
      "type": "error"
    },
    {
      "inputs": [
        {
          "internalType": "address",
          "name": "spender",
          "type": "address"
        }
      ],
      "name": "ERC20InvalidSpender",
      "type": "error"
    },
    {
      "inputs": [
        {
          "internalType": "uint256",
          "name": "deadline",
          "type": "uint256"
        }
      ],
      "name": "ERC2612ExpiredSignature",
      "type": "error"
    },
    {
      "inputs": [
        {
          "internalType": "address",
          "name": "signer",
          "type": "address"
        },
        {
          "internalType": "address",
          "name": "owner",
          "type": "address"
        }
      ],
      "name": "ERC2612InvalidSigner",
      "type": "error"
    },
    {
      "inputs": [],
      "name": "FailedCall",
      "type": "error"
    },
    {
      "inputs": [
        {
          "internalType": "uint256",
          "name": "balance",
          "type": "uint256"
        },
        {
          "internalType": "uint256",
          "name": "needed",
          "type": "uint256"
        }
      ],
      "name": "InsufficientBalance",
      "type": "error"
    },
    {
      "inputs": [
        {
          "internalType": "address",
          "name": "account",
          "type": "address"
        },
        {
          "internalType": "uint256",
          "name": "currentNonce",
          "type": "uint256"
        }
      ],
      "name": "InvalidAccountNonce",
      "type": "error"
    },
    {
      "inputs": [],
      "name": "InvalidShortString",
      "type": "error"
    },
    {
      "inputs": [
        {
          "internalType": "string",
          "name": "str",
          "type": "string"
        }
      ],
      "name": "StringTooLong",
      "type": "error"
    },
    {
      "anonymous": false,
      "inputs": [
        {
          "indexed": true,
          "internalType": "address",
          "name": "owner",
          "type": "address"
        },
        {
          "indexed": true,
          "internalType": "address",
          "name": "spender",
          "type": "address"
        },
        {
          "indexed": false,
          "internalType": "uint256",
          "name": "value",
          "type": "uint256"
        }
      ],
      "name": "Approval",
      "type": "event"
    },
    {
      "anonymous": false,
      "inputs": [
        {
          "indexed": true,
          "internalType": "address",
          "name": "from",
          "type": "address"
        },
        {
          "indexed": true,
          "internalType": "address",
          "name": "to",
          "type": "address"
        },
        {
          "indexed": false,
          "internalType": "uint256",
          "name": "value",
          "type": "uint256"
        }
      ],
      "name": "Deposit",
      "type": "event"
    },
    {
      "anonymous": false,
      "inputs": [],
      "name": "EIP712DomainChanged",
      "type": "event"
    },
    {
      "anonymous": false,
      "inputs": [
        {
          "indexed": true,
          "internalType": "address",
          "name": "from",
          "type": "address"
        },
        {
          "indexed": true,
          "internalType": "address",
          "name": "to",
          "type": "address"
        },
        {
          "indexed": false,
          "internalType": "uint256",
          "name": "value",
          "type": "uint256"
        }
      ],
      "name": "Transfer",
      "type": "event"
    },
    {
      "anonymous": false,
      "inputs": [
        {
          "indexed": true,
          "internalType": "address",
          "name": "from",
          "type": "address"
        },
        {
          "indexed": true,
          "internalType": "address",
          "name": "to",
          "type": "address"
        },
        {
          "indexed": false,
          "internalType": "uint256",
          "name": "value",
          "type": "uint256"
        }
      ],
      "name": "Withdrawal",
      "type": "event"
    },
    {
      "inputs": [],
      "name": "DOMAIN_SEPARATOR",
      "outputs": [
        {
          "internalType": "bytes32",
          "name": "",
          "type": "bytes32"
        }
      ],
      "stateMutability": "view",
      "type": "function"
    },
    {
      "inputs": [
        {
          "internalType": "address",
          "name": "owner",
          "type": "address"
        },
        {
          "internalType": "address",
          "name": "spender",
          "type": "address"
        }
      ],
      "name": "allowance",
      "outputs": [
        {
          "internalType": "uint256",
          "name": "",
          "type": "uint256"
        }
      ],
      "stateMutability": "view",
      "type": "function"
    },
    {
      "inputs": [
        {
          "internalType": "address",
          "name": "spender",
          "type": "address"
        },
        {
          "internalType": "uint256",
          "name": "value",
          "type": "uint256"
        }
      ],
      "name": "approve",
      "outputs": [
        {
          "internalType": "bool",
          "name": "",
          "type": "bool"
        }
      ],
      "stateMutability": "nonpayable",
      "type": "function"
    },
    {
      "inputs": [
        {
          "internalType": "address",
          "name": "account",
          "type": "address"
        }
      ],
      "name": "balanceOf",
      "outputs": [
        {
          "internalType": "uint256",
          "name": "",
          "type": "uint256"
        }
      ],
      "stateMutability": "view",
      "type": "function"
    },
    {
      "inputs": [],
      "name": "decimals",
      "outputs": [
        {
          "internalType": "uint8",
          "name": "",
          "type": "uint8"
        }
      ],
      "stateMutability": "view",
      "type": "function"
    },
    {
      "inputs": [],
      "name": "deposit",
      "outputs": [],
      "stateMutability": "payable",
      "type": "function"
    },
    {
      "inputs": [
        {
          "internalType": "address",
          "name": "to",
          "type": "address"
        }
      ],
      "name": "depositTo",
      "outputs": [],
      "stateMutability": "payable",
      "type": "function"
    },
    {
      "inputs": [],
      "name": "eip712Domain",
      "outputs": [
        {
          "internalType": "bytes1",
          "name": "fields",
          "type": "bytes1"
        },
        {
          "internalType": "string",
          "name": "name",
          "type": "string"
        },
        {
          "internalType": "string",
          "name": "version",
          "type": "string"
        },
        {
          "internalType": "uint256",
          "name": "chainId",
          "type": "uint256"
        },
        {
          "internalType": "address",
          "name": "verifyingContract",
          "type": "address"
        },
        {
          "internalType": "bytes32",
          "name": "salt",
          "type": "bytes32"
        },
        {
          "internalType": "uint256[]",
          "name": "extensions",
          "type": "uint256[]"
        }
      ],
      "stateMutability": "view",
      "type": "function"
    },
    {
      "inputs": [],
      "name": "name",
      "outputs": [
        {
          "internalType": "string",
          "name": "",
          "type": "string"
        }
      ],
      "stateMutability": "view",
      "type": "function"
    },
    {
      "inputs": [
        {
          "internalType": "address",
          "name": "owner",
          "type": "address"
        }
      ],
      "name": "nonces",
      "outputs": [
        {
          "internalType": "uint256",
          "name": "",
          "type": "uint256"
        }
      ],
      "stateMutability": "view",
      "type": "function"
    },
    {
      "inputs": [
        {
          "internalType": "address",
          "name": "owner",
          "type": "address"
        },
        {
          "internalType": "address",
          "name": "spender",
          "type": "address"
        },
        {
          "internalType": "uint256",
          "name": "value",
          "type": "uint256"
        },
        {
          "internalType": "uint256",
          "name": "deadline",
          "type": "uint256"
        },
        {
          "internalType": "uint8",
          "name": "v",
          "type": "uint8"
        },
        {
          "internalType": "bytes32",
          "name": "r",
          "type": "bytes32"
        },
        {
          "internalType": "bytes32",
          "name": "s",
          "type": "bytes32"
        }
      ],
      "name": "permit",
      "outputs": [],
      "stateMutability": "nonpayable",
      "type": "function"
    },
    {
      "inputs": [],
      "name": "symbol",
      "outputs": [
        {
          "internalType": "string",
          "name": "",
          "type": "string"
        }
      ],
      "stateMutability": "view",
      "type": "function"
    },
    {
      "inputs": [],
      "name": "totalSupply",
      "outputs": [
        {
          "internalType": "uint256",
          "name": "",
          "type": "uint256"
        }
      ],
      "stateMutability": "view",
      "type": "function"
    },
    {
      "inputs": [
        {
          "internalType": "address",
          "name": "to",
          "type": "address"
        },
        {
          "internalType": "uint256",
          "name": "amount",
          "type": "uint256"
        }
      ],
      "name": "transfer",
      "outputs": [
        {
          "internalType": "bool",
          "name": "",
          "type": "bool"
        }
      ],
      "stateMutability": "nonpayable",
      "type": "function"
    },
    {
      "inputs": [
        {
          "internalType": "address",
          "name": "sender",
          "type": "address"
        },
        {
          "internalType": "address",
          "name": "to",
          "type": "address"
        },
        {
          "internalType": "uint256",
          "name": "amount",
          "type": "uint256"
        }
      ],
      "name": "transferFrom",
      "outputs": [
        {
          "internalType": "bool",
          "name": "",
          "type": "bool"
        }
      ],
      "stateMutability": "nonpayable",
      "type": "function"
    },
    {
      "inputs": [
        {
          "internalType": "uint256",
          "name": "amount",
          "type": "uint256"
        }
      ],
      "name": "withdraw",
      "outputs": [],
      "stateMutability": "nonpayable",
      "type": "function"
    },
    {
      "inputs": [
        {
          "internalType": "address",
          "name": "account",
          "type": "address"
        },
        {
          "internalType": "address",
          "name": "to",
          "type": "address"
        },
        {
          "internalType": "uint256",
          "name": "amount",
          "type": "uint256"
        }
      ],
      "name": "withdrawFrom",
      "outputs": [],
      "stateMutability": "nonpayable",
      "type": "function"
    },
    {
      "inputs": [
        {
          "internalType": "address",
          "name": "to",
          "type": "address"
        },
        {
          "internalType": "uint256",
          "name": "amount",
          "type": "uint256"
        }
      ],
      "name": "withdrawTo",
      "outputs": [],
      "stateMutability": "nonpayable",
      "type": "function"
    },
    {
      "stateMutability": "payable",
      "type": "receive"
    }
  ],
  "bytecode": "0x61016060405234801561001157600080fd5b506040518060400160405280600b81526020016a577261707065642043414d60a81b81525080604051806040016040528060018152602001603160f81b8152506040518060400160405280601081526020016f5465737420577261707065642043414d60801b81525060405180604001604052806008815260200167746573745743414d60c01b81525081600390816100aa919061028b565b5060046100b7828261028b565b506100c791508390506005610172565b610120526100d6816006610172565b61014052815160208084019190912060e052815190820120610100524660a05261016360e05161010051604080517f8b73c3c69bb8fe3d512ecc4cf759cc79239f7b179b0ffacaa9a75d522b39400f60208201529081019290925260608201524660808201523060a082015260009060c00160405160208183030381529060405280519060200120905090565b60805250503060c052506103bb565b600060208351101561018e57610187836101a5565b905061019f565b81610199848261028b565b5060ff90505b92915050565b600080829050601f815111156101d9578260405163305a27a960e01b81526004016101d09190610349565b60405180910390fd5b80516101e482610397565b179392505050565b634e487b7160e01b600052604160045260246000fd5b600181811c9082168061021657607f821691505b60208210810361023657634e487b7160e01b600052602260045260246000fd5b50919050565b601f82111561028657806000526020600020601f840160051c810160208510156102635750805b601f840160051c820191505b81811015610283576000815560010161026f565b50505b505050565b81516001600160401b038111156102a4576102a46101ec565b6102b8816102b28454610202565b8461023c565b6020601f8211600181146102ec57600083156102d45750848201515b600019600385901b1c1916600184901b178455610283565b600084815260208120601f198516915b8281101561031c57878501518255602094850194600190920191016102fc565b508482101561033a5786840151600019600387901b60f8161c191681555b50505050600190811b01905550565b602081526000825180602084015260005b81811015610377576020818601810151604086840101520161035a565b506000604082850101526040601f19601f83011684010191505092915050565b805160208083015191908110156102365760001960209190910360031b1b16919050565b60805160a05160c05160e0516101005161012051610140516117fd6104156000396000610cfd01526000610cd001526000610c7801526000610c5001526000610bab01526000610bd501526000610bff01526117fd6000f3fe60806040526004361061012d5760003560e01c80637ecebe00116100a5578063a9059cbb11610074578063d0e30db011610059578063d0e30db014610332578063d505accf1461033a578063dd62ed3e1461035a57600080fd5b8063a9059cbb146102ff578063b760faf91461031f57600080fd5b80637ecebe001461028257806384b0196e146102a25780639555a942146102ca57806395d89b41146102ea57600080fd5b806323b872dd116100fc578063313ce567116100e1578063313ce5671461021b5780633644e5151461023757806370a082311461024c57600080fd5b806323b872dd146101db5780632e1a7d4d146101fb57600080fd5b806306fdde0314610141578063095ea7b31461016c57806318160ddd1461019c578063205c2878146101bb57600080fd5b3661013c5761013a6103a0565b005b600080fd5b34801561014d57600080fd5b506101566103e3565b60405161016391906114e7565b60405180910390f35b34801561017857600080fd5b5061018c610187366004611516565b610475565b6040519015158152602001610163565b3480156101a857600080fd5b506002545b604051908152602001610163565b3480156101c757600080fd5b5061013a6101d6366004611516565b61048f565b3480156101e757600080fd5b5061018c6101f6366004611540565b610582565b34801561020757600080fd5b5061013a61021636600461157d565b6105d9565b34801561022757600080fd5b5060405160128152602001610163565b34801561024357600080fd5b506101ad610628565b34801561025857600080fd5b506101ad610267366004611596565b6001600160a01b031660009081526020819052604090205490565b34801561028e57600080fd5b506101ad61029d366004611596565b610637565b3480156102ae57600080fd5b506102b7610655565b60405161016397969594939291906115b1565b3480156102d657600080fd5b5061013a6102e5366004611540565b6106b7565b3480156102f657600080fd5b506101566107be565b34801561030b57600080fd5b5061018c61031a366004611516565b6107cd565b61013a61032d366004611596565b610822565b61013a6103a0565b34801561034657600080fd5b5061013a610355366004611665565b6108ab565b34801561036657600080fd5b506101ad6103753660046116d8565b6001600160a01b03918216600090815260016020908152604080832093909416825291909152205490565b6103aa3334610a17565b604051348152339081907f5548c837ab068cf56a2c2479df0882a4922fd203edb7517321831d95078c5f629060200160405180910390a3565b6060600380546103f29061170b565b80601f016020809104026020016040519081016040528092919081815260200182805461041e9061170b565b801561046b5780601f106104405761010080835404028352916020019161046b565b820191906000526020600020905b81548152906001019060200180831161044e57829003601f168201915b5050505050905090565b600033610483818585610a6a565b60019150505b92915050565b306001600160a01b038316036104d1576040517fd2d2affc00000000000000000000000000000000000000000000000000000000815260040160405180910390fd5b6001600160a01b038216610521576040517fec442f050000000000000000000000000000000000000000000000000000000081526001600160a01b03831660048201526024015b60405180910390fd5b61052b3382610a7c565b61053e6001600160a01b03831682610acb565b6040518181526001600160a01b0383169033907f2717ead6b9200dd235aad468c9809ea400fe33ac69b5bfaa6d3e90fc922b63989060200160405180910390a35050565b6000306001600160a01b038416036105c6576040517fd2d2affc00000000000000000000000000000000000000000000000000000000815260040160405180910390fd5b6105d1848484610b7a565b949350505050565b6105e33382610a7c565b6105ed3382610acb565b604051818152339081907f2717ead6b9200dd235aad468c9809ea400fe33ac69b5bfaa6d3e90fc922b6398906020015b60405180910390a350565b6000610632610b9e565b905090565b6001600160a01b038116600090815260076020526040812054610489565b600060608060008060006060610669610cc9565b610671610cf6565b604080516000808252602082019092527f0f000000000000000000000000000000000000000000000000000000000000009b939a50919850469750309650945092509050565b306001600160a01b038316036106f9576040517fd2d2affc00000000000000000000000000000000000000000000000000000000815260040160405180910390fd5b6001600160a01b038216610744576040517fec442f050000000000000000000000000000000000000000000000000000000081526001600160a01b0383166004820152602401610518565b61074f833383610d23565b6107598382610a7c565b61076c6001600160a01b03831682610acb565b816001600160a01b0316836001600160a01b03167f2717ead6b9200dd235aad468c9809ea400fe33ac69b5bfaa6d3e90fc922b6398836040516107b191815260200190565b60405180910390a3505050565b6060600480546103f29061170b565b6000306001600160a01b03841603610811576040517fd2d2affc00000000000000000000000000000000000000000000000000000000815260040160405180910390fd5b61081b8383610dd3565b9392505050565b306001600160a01b03821603610864576040517fd2d2affc00000000000000000000000000000000000000000000000000000000815260040160405180910390fd5b61086e8134610a17565b6040513481526001600160a01b0382169033907f5548c837ab068cf56a2c2479df0882a4922fd203edb7517321831d95078c5f629060200161061d565b834211156108e8576040517f6279130200000000000000000000000000000000000000000000000000000000815260048101859052602401610518565b60007f6e71edae12b1b97f4d1f60370fef10105fa2faae0126114a169c64845d6126c98888886109358c6001600160a01b0316600090815260076020526040902080546001810190915590565b6040805160208101969096526001600160a01b0394851690860152929091166060840152608083015260a082015260c0810186905260e001604051602081830303815290604052805190602001209050600061099082610de1565b905060006109a082878787610e29565b9050896001600160a01b0316816001600160a01b031614610a00576040517f4b800e460000000000000000000000000000000000000000000000000000000081526001600160a01b0380831660048301528b166024820152604401610518565b610a0b8a8a8a610a6a565b50505050505050505050565b6001600160a01b038216610a5a576040517fec442f0500000000000000000000000000000000000000000000000000000000815260006004820152602401610518565b610a6660008383610e57565b5050565b610a778383836001610f8d565b505050565b6001600160a01b038216610abf576040517f96c6fd1e00000000000000000000000000000000000000000000000000000000815260006004820152602401610518565b610a6682600083610e57565b80471015610b0e576040517fcf47918100000000000000000000000000000000000000000000000000000000815247600482015260248101829052604401610518565b600080836001600160a01b03168360405160006040518083038185875af1925050503d8060008114610b5c576040519150601f19603f3d011682016040523d82523d6000602084013e610b61565b606091505b509150915081610b7457610b7481611094565b50505050565b600033610b88858285610d23565b610b938585856110d6565b506001949350505050565b6000306001600160a01b037f000000000000000000000000000000000000000000000000000000000000000016148015610bf757507f000000000000000000000000000000000000000000000000000000000000000046145b15610c2157507f000000000000000000000000000000000000000000000000000000000000000090565b610632604080517f8b73c3c69bb8fe3d512ecc4cf759cc79239f7b179b0ffacaa9a75d522b39400f60208201527f0000000000000000000000000000000000000000000000000000000000000000918101919091527f000000000000000000000000000000000000000000000000000000000000000060608201524660808201523060a082015260009060c00160405160208183030381529060405280519060200120905090565b60606106327f00000000000000000000000000000000000000000000000000000000000000006005611167565b60606106327f00000000000000000000000000000000000000000000000000000000000000006006611167565b6001600160a01b038381166000908152600160209081526040808320938616835292905220547fffffffffffffffffffffffffffffffffffffffffffffffffffffffffffffffff811015610b745781811015610dc4576040517ffb8f41b20000000000000000000000000000000000000000000000000000000081526001600160a01b03841660048201526024810182905260448101839052606401610518565b610b7484848484036000610f8d565b6000336104838185856110d6565b6000610489610dee610b9e565b836040517f19010000000000000000000000000000000000000000000000000000000000008152600281019290925260228201526042902090565b600080600080610e3b88888888611212565b925092509250610e4b82826112ff565b50909695505050505050565b6001600160a01b038316610e82578060026000828254610e77919061175e565b90915550610f0d9050565b6001600160a01b03831660009081526020819052604090205481811015610eee576040517fe450d38c0000000000000000000000000000000000000000000000000000000081526001600160a01b03851660048201526024810182905260448101839052606401610518565b6001600160a01b03841660009081526020819052604090209082900390555b6001600160a01b038216610f2957600280548290039055610f48565b6001600160a01b03821660009081526020819052604090208054820190555b816001600160a01b0316836001600160a01b03167fddf252ad1be2c89b69c2b068fc378daa952ba7f163c4a11628f55a4df523b3ef836040516107b191815260200190565b6001600160a01b038416610fd0576040517fe602df0500000000000000000000000000000000000000000000000000000000815260006004820152602401610518565b6001600160a01b038316611013576040517f94280d6200000000000000000000000000000000000000000000000000000000815260006004820152602401610518565b6001600160a01b0380851660009081526001602090815260408083209387168352929052208290558015610b7457826001600160a01b0316846001600160a01b03167f8c5be1e5ebec7d5bd14f71427d1e84f3dd0314c0f7b2291e5b200ac8c7c3b9258460405161108691815260200190565b60405180910390a350505050565b8051156110a45780518082602001fd5b6040517fd6bda27500000000000000000000000000000000000000000000000000000000815260040160405180910390fd5b6001600160a01b038316611119576040517f96c6fd1e00000000000000000000000000000000000000000000000000000000815260006004820152602401610518565b6001600160a01b03821661115c576040517fec442f0500000000000000000000000000000000000000000000000000000000815260006004820152602401610518565b610a77838383610e57565b606060ff83146111815761117a83611403565b9050610489565b81805461118d9061170b565b80601f01602080910402602001604051908101604052809291908181526020018280546111b99061170b565b80156112065780601f106111db57610100808354040283529160200191611206565b820191906000526020600020905b8154815290600101906020018083116111e957829003601f168201915b50505050509050610489565b600080807f7fffffffffffffffffffffffffffffff5d576e7357a4501ddfe92f46681b20a084111561124d57506000915060039050826112f5565b604080516000808252602082018084528a905260ff891692820192909252606081018790526080810186905260019060a0016020604051602081039080840390855afa1580156112a1573d6000803e3d6000fd5b50506040517fffffffffffffffffffffffffffffffffffffffffffffffffffffffffffffffe001519150506001600160a01b0381166112eb575060009250600191508290506112f5565b9250600091508190505b9450945094915050565b600082600381111561131357611313611798565b0361131c575050565b600182600381111561133057611330611798565b03611367576040517ff645eedf00000000000000000000000000000000000000000000000000000000815260040160405180910390fd5b600282600381111561137b5761137b611798565b036113b5576040517ffce698f700000000000000000000000000000000000000000000000000000000815260048101829052602401610518565b60038260038111156113c9576113c9611798565b03610a66576040517fd78bce0c00000000000000000000000000000000000000000000000000000000815260048101829052602401610518565b6060600061141083611442565b604080516020808252818301909252919250600091906020820181803683375050509182525060208101929092525090565b600060ff8216601f811115610489576040517fb3512b0c00000000000000000000000000000000000000000000000000000000815260040160405180910390fd5b6000815180845260005b818110156114a95760208185018101518683018201520161148d565b5060006020828601015260207fffffffffffffffffffffffffffffffffffffffffffffffffffffffffffffffe0601f83011685010191505092915050565b60208152600061081b6020830184611483565b80356001600160a01b038116811461151157600080fd5b919050565b6000806040838503121561152957600080fd5b611532836114fa565b946020939093013593505050565b60008060006060848603121561155557600080fd5b61155e846114fa565b925061156c602085016114fa565b929592945050506040919091013590565b60006020828403121561158f57600080fd5b5035919050565b6000602082840312156115a857600080fd5b61081b826114fa565b7fff000000000000000000000000000000000000000000000000000000000000008816815260e0602082015260006115ec60e0830189611483565b82810360408401526115fe8189611483565b606084018890526001600160a01b038716608085015260a0840186905283810360c08501528451808252602080870193509091019060005b81811015611654578351835260209384019390920191600101611636565b50909b9a5050505050505050505050565b600080600080600080600060e0888a03121561168057600080fd5b611689886114fa565b9650611697602089016114fa565b95506040880135945060608801359350608088013560ff811681146116bb57600080fd5b9699959850939692959460a0840135945060c09093013592915050565b600080604083850312156116eb57600080fd5b6116f4836114fa565b9150611702602084016114fa565b90509250929050565b600181811c9082168061171f57607f821691505b602082108103611758577f4e487b7100000000000000000000000000000000000000000000000000000000600052602260045260246000fd5b50919050565b80820180821115610489577f4e487b7100000000000000000000000000000000000000000000000000000000600052601160045260246000fd5b7f4e487b7100000000000000000000000000000000000000000000000000000000600052602160045260246000fdfea26469706673582212206937cb5cdec3ef5fa3dc1b857805da361a9bab868252270e59bab85fdf91a0b364736f6c634300081c0033",
  "linkReferences": {},
  "deployedLinkReferences": {}
}